{
  "_format": "hh-sol-artifact-1",
  "contractName": "EnergyUsageTracker",
  "sourceName": "contracts/EnergyUsageTracker.sol",
  "abi": [
    {
      "inputs": [
        {
          "internalType": "uint256",
          "name": "_billingRate",
          "type": "uint256"
        },
        {
          "internalType": "uint256",
          "name": "_feedInTariffRate",
          "type": "uint256"
        }
      ],
      "stateMutability": "nonpayable",
      "type": "constructor"
    },
    {
      "anonymous": false,
      "inputs": [
        {
          "indexed": true,
          "internalType": "uint256",
          "name": "auctionId",
          "type": "uint256"
        },
        {
          "indexed": true,
          "internalType": "address",
          "name": "bidder",
          "type": "address"
        },
        {
          "indexed": false,
          "internalType": "uint256",
          "name": "amount",
          "type": "uint256"
        }
      ],
      "name": "AuctionBid",
      "type": "event"
    },
    {
      "anonymous": false,
      "inputs": [
        {
          "indexed": true,
          "internalType": "uint256",
          "name": "auctionId",
          "type": "uint256"
        },
        {
          "indexed": true,
          "internalType": "address",
          "name": "winner",
          "type": "address"
        },
        {
          "indexed": false,
          "internalType": "uint256",
          "name": "amount",
          "type": "uint256"
        }
      ],
      "name": "AuctionEnded",
      "type": "event"
    },
    {
      "anonymous": false,
      "inputs": [
        {
          "indexed": true,
          "internalType": "uint256",
          "name": "auctionId",
          "type": "uint256"
        },
        {
          "indexed": true,
          "internalType": "address",
          "name": "seller",
          "type": "address"
        },
        {
          "indexed": false,
          "internalType": "uint256",
          "name": "amount",
          "type": "uint256"
        },
        {
          "indexed": false,
          "internalType": "string",
          "name": "serviceType",
          "type": "string"
        }
      ],
      "name": "AuctionStarted",
      "type": "event"
    },
    {
      "anonymous": false,
      "inputs": [
        {
          "indexed": true,
          "internalType": "address",
          "name": "user",
          "type": "address"
        },
        {
          "indexed": false,
          "internalType": "uint256",
          "name": "outstandingAmount",
          "type": "uint256"
        }
      ],
      "name": "BillCalculated",
      "type": "event"
    },
    {
      "anonymous": false,
      "inputs": [
        {
          "indexed": true,
          "internalType": "address",
          "name": "user",
          "type": "address"
        },
        {
          "indexed": false,
          "internalType": "uint256",
          "name": "amountPaid",
          "type": "uint256"
        }
      ],
      "name": "BillSettled",
      "type": "event"
    },
    {
      "anonymous": false,
      "inputs": [
        {
          "indexed": true,
          "internalType": "address",
          "name": "user",
          "type": "address"
        },
        {
          "indexed": false,
          "internalType": "uint256",
          "name": "energyConsumed",
          "type": "uint256"
        },
        {
          "indexed": false,
          "internalType": "uint256",
          "name": "energyGenerated",
          "type": "uint256"
        }
      ],
      "name": "EnergyDataUpdated",
      "type": "event"
    },
    {
      "anonymous": false,
      "inputs": [
        {
          "indexed": true,
          "internalType": "address",
          "name": "user",
          "type": "address"
        },
        {
          "indexed": false,
          "internalType": "uint256",
          "name": "amount",
          "type": "uint256"
        },
        {
          "indexed": false,
          "internalType": "uint256",
          "name": "credit",
          "type": "uint256"
        }
      ],
      "name": "EnergyFedToGrid",
      "type": "event"
    },
    {
      "inputs": [],
      "name": "AUCTION_DURATION",
      "outputs": [
        {
          "internalType": "uint256",
          "name": "",
          "type": "uint256"
        }
      ],
      "stateMutability": "view",
      "type": "function"
    },
    {
      "inputs": [],
      "name": "auctionCount",
      "outputs": [
        {
          "internalType": "uint256",
          "name": "",
          "type": "uint256"
        }
      ],
      "stateMutability": "view",
      "type": "function"
    },
    {
      "inputs": [
        {
          "internalType": "uint256",
          "name": "",
          "type": "uint256"
        }
      ],
      "name": "auctions",
      "outputs": [
        {
          "internalType": "address",
          "name": "seller",
          "type": "address"
        },
        {
          "internalType": "uint256",
          "name": "amount",
          "type": "uint256"
        },
        {
          "internalType": "uint256",
          "name": "startTime",
          "type": "uint256"
        },
        {
          "internalType": "uint256",
          "name": "endTime",
          "type": "uint256"
        },
        {
          "internalType": "bool",
          "name": "isActive",
          "type": "bool"
        },
        {
          "internalType": "address",
          "name": "highestBidder",
          "type": "address"
        },
        {
          "internalType": "uint256",
          "name": "highestBid",
          "type": "uint256"
        },
        {
          "internalType": "string",
          "name": "serviceType",
          "type": "string"
        }
      ],
      "stateMutability": "view",
      "type": "function"
    },
    {
      "inputs": [],
      "name": "billingRate",
      "outputs": [
        {
          "internalType": "uint256",
          "name": "",
          "type": "uint256"
        }
      ],
      "stateMutability": "view",
      "type": "function"
    },
    {
      "inputs": [
        {
          "internalType": "address",
          "name": "_user",
          "type": "address"
        }
      ],
      "name": "calculateBill",
      "outputs": [
        {
          "internalType": "uint256",
          "name": "",
          "type": "uint256"
        }
      ],
      "stateMutability": "nonpayable",
      "type": "function"
    },
    {
      "inputs": [
        {
          "internalType": "uint256",
          "name": "auctionId",
          "type": "uint256"
        }
      ],
      "name": "endAuction",
      "outputs": [],
      "stateMutability": "nonpayable",
      "type": "function"
    },
    {
      "inputs": [
        {
          "internalType": "uint256",
          "name": "amount",
          "type": "uint256"
        }
      ],
      "name": "feedExcessEnergyToGrid",
      "outputs": [],
      "stateMutability": "nonpayable",
      "type": "function"
    },
    {
      "inputs": [],
      "name": "feedInTariffRate",
      "outputs": [
        {
          "internalType": "uint256",
          "name": "",
          "type": "uint256"
        }
      ],
      "stateMutability": "view",
      "type": "function"
    },
    {
      "inputs": [
        {
          "internalType": "uint256",
          "name": "auctionId",
          "type": "uint256"
        }
      ],
      "name": "getAuctionDetails",
      "outputs": [
        {
          "internalType": "address",
          "name": "seller",
          "type": "address"
        },
        {
          "internalType": "uint256",
          "name": "amount",
          "type": "uint256"
        },
        {
          "internalType": "uint256",
          "name": "startTime",
          "type": "uint256"
        },
        {
          "internalType": "uint256",
          "name": "endTime",
          "type": "uint256"
        },
        {
          "internalType": "bool",
          "name": "isActive",
          "type": "bool"
        },
        {
          "internalType": "address",
          "name": "highestBidder",
          "type": "address"
        },
        {
          "internalType": "uint256",
          "name": "highestBid",
          "type": "uint256"
        },
        {
          "internalType": "string",
          "name": "serviceType",
          "type": "string"
        }
      ],
      "stateMutability": "view",
      "type": "function"
    },
    {
      "inputs": [
        {
          "internalType": "address",
          "name": "_user",
          "type": "address"
        }
      ],
      "name": "getUserStatus",
      "outputs": [
        {
          "internalType": "uint256",
          "name": "consumed",
          "type": "uint256"
        },
        {
          "internalType": "uint256",
          "name": "generated",
          "type": "uint256"
        },
        {
          "internalType": "bool",
          "name": "outstandingBill",
          "type": "bool"
        },
        {
          "internalType": "uint256",
          "name": "outstandingAmount",
          "type": "uint256"
        },
        {
          "internalType": "uint256",
          "name": "excessEnergyCredits",
          "type": "uint256"
        }
      ],
      "stateMutability": "view",
      "type": "function"
    },
    {
      "inputs": [
        {
          "internalType": "uint256",
          "name": "auctionId",
          "type": "uint256"
        }
      ],
      "name": "placeBid",
      "outputs": [],
      "stateMutability": "payable",
      "type": "function"
    },
    {
      "inputs": [],
      "name": "settleBill",
      "outputs": [],
      "stateMutability": "payable",
      "type": "function"
    },
    {
      "inputs": [
        {
          "internalType": "uint256",
          "name": "amount",
          "type": "uint256"
        },
        {
          "internalType": "string",
          "name": "serviceType",
          "type": "string"
        }
      ],
      "name": "startEnergyAuction",
      "outputs": [],
      "stateMutability": "nonpayable",
      "type": "function"
    },
    {
      "inputs": [
        {
          "internalType": "uint256",
          "name": "_energyConsumed",
          "type": "uint256"
        },
        {
          "internalType": "uint256",
          "name": "_energyGenerated",
          "type": "uint256"
        }
      ],
      "name": "updateEnergyData",
      "outputs": [],
      "stateMutability": "nonpayable",
      "type": "function"
    },
    {
      "inputs": [
        {
          "internalType": "address",
          "name": "",
          "type": "address"
        }
      ],
      "name": "users",
      "outputs": [
        {
          "internalType": "uint256",
          "name": "energyConsumed",
          "type": "uint256"
        },
        {
          "internalType": "uint256",
          "name": "energyGenerated",
          "type": "uint256"
        },
        {
          "internalType": "bool",
          "name": "hasOutstandingBill",
          "type": "bool"
        },
        {
          "internalType": "uint256",
          "name": "outstandingAmount",
          "type": "uint256"
        },
        {
          "internalType": "uint256",
          "name": "excessEnergyCredits",
          "type": "uint256"
        }
      ],
      "stateMutability": "view",
      "type": "function"
    }
  ],
  "bytecode": "0x6080604052348015600f57600080fd5b5060405161249b38038061249b8339818101604052810190602f91906079565b8160028190555080600381905550505060b2565b600080fd5b6000819050919050565b6059816048565b8114606357600080fd5b50565b6000815190506073816052565b92915050565b60008060408385031215608d57608c6043565b5b60006099858286016066565b925050602060a8858286016066565b9150509250929050565b6123da806100c16000396000f3fe6080604052600436106100e85760003560e01c80639979ef451161008a578063ea0d5dcd11610059578063ea0d5dcd146102d1578063ef8fc92f14610312578063f20e5e351461033d578063f219360314610381576100e8565b80639979ef4514610220578063a271e5251461023c578063a87430ba14610267578063b9a2de3a146102a8576100e8565b80632ad71573116100c65780632ad715731461015d578063571a26a01461018857806379896464146101cc57806396127bb2146101f7576100e8565b806310a8fd12146100ed5780631a6151621461012a5780631d8d681c14610134575b600080fd5b3480156100f957600080fd5b50610114600480360381019061010f91906116ee565b6103aa565b6040516101219190611734565b60405180910390f35b6101326104d7565b005b34801561014057600080fd5b5061015b6004803603810190610156919061177b565b61068e565b005b34801561016957600080fd5b50610172610931565b60405161017f9190611734565b60405180910390f35b34801561019457600080fd5b506101af60048036038101906101aa91906117bb565b610937565b6040516101c39897969594939291906118a2565b60405180910390f35b3480156101d857600080fd5b506101e1610a54565b6040516101ee9190611734565b60405180910390f35b34801561020357600080fd5b5061021e60048036038101906102199190611a5c565b610a5a565b005b61023a600480360381019061023591906117bb565b610d3c565b005b34801561024857600080fd5b50610251610f98565b60405161025e9190611734565b60405180910390f35b34801561027357600080fd5b5061028e600480360381019061028991906116ee565b610f9e565b60405161029f959493929190611ab8565b60405180910390f35b3480156102b457600080fd5b506102cf60048036038101906102ca91906117bb565b610fe1565b005b3480156102dd57600080fd5b506102f860048036038101906102f391906116ee565b6112f4565b604051610309959493929190611ab8565b60405180910390f35b34801561031e57600080fd5b50610327611377565b6040516103349190611734565b60405180910390f35b34801561034957600080fd5b50610364600480360381019061035f91906117bb565b61137d565b6040516103789897969594939291906118a2565b60405180910390f35b34801561038d57600080fd5b506103a860048036038101906103a391906117bb565b6114bd565b005b6000806000808473ffffffffffffffffffffffffffffffffffffffff1673ffffffffffffffffffffffffffffffffffffffff16815260200190815260200160002090506000816000015482600101546104039190611b44565b9050600081121561044f5760018260020160006101000a81548160ff0219169083151502179055506002548161043890611b87565b6104429190611bcf565b8260030181905550610477565b60008260020160006101000a81548160ff021916908315150217905550600082600301819055505b8373ffffffffffffffffffffffffffffffffffffffff167f85cef5dc15666b0457f481ff73b1c5472fd179058cb173a4f18ebc02ea5632fb83600301546040516104c19190611734565b60405180910390a2816003015492505050919050565b60008060003373ffffffffffffffffffffffffffffffffffffffff1673ffffffffffffffffffffffffffffffffffffffff16815260200190815260200160002090508060020160009054906101000a900460ff1661056a576040517f08c379a000000000000000000000000000000000000000000000000000000000815260040161056190611c5d565b60405180910390fd5b80600301543410156105b1576040517f08c379a00000000000000000000000000000000000000000000000000000000081526004016105a890611cef565b60405180910390fd5b60008160030154905060008260020160006101000a81548160ff021916908315150217905550600082600301819055503373ffffffffffffffffffffffffffffffffffffffff167f5ea6ef6500cbe7179daddf33e03555484a279f51e97516937193252dc717a954826040516106279190611734565b60405180910390a28034111561068a573373ffffffffffffffffffffffffffffffffffffffff166108fc823461065d9190611d0f565b9081150290604051600060405180830381858888f19350505050158015610688573d6000803e3d6000fd5b505b5050565b60008060003373ffffffffffffffffffffffffffffffffffffffff1673ffffffffffffffffffffffffffffffffffffffff16815260200190815260200160002060000154148015610720575060008060003373ffffffffffffffffffffffffffffffffffffffff1673ffffffffffffffffffffffffffffffffffffffff16815260200190815260200160002060010154145b801561076d575060008060003373ffffffffffffffffffffffffffffffffffffffff1673ffffffffffffffffffffffffffffffffffffffff16815260200190815260200160002060030154145b1561082c576040518060a001604052808381526020018281526020016000151581526020016000815260200160008152506000803373ffffffffffffffffffffffffffffffffffffffff1673ffffffffffffffffffffffffffffffffffffffff168152602001908152602001600020600082015181600001556020820151816001015560408201518160020160006101000a81548160ff02191690831515021790555060608201518160030155608082015181600401559050506108dd565b816000803373ffffffffffffffffffffffffffffffffffffffff1673ffffffffffffffffffffffffffffffffffffffff168152602001908152602001600020600001600082825461087d9190611d43565b92505081905550806000803373ffffffffffffffffffffffffffffffffffffffff1673ffffffffffffffffffffffffffffffffffffffff16815260200190815260200160002060010160008282546108d59190611d43565b925050819055505b3373ffffffffffffffffffffffffffffffffffffffff167f5298cbdfe4a1516062fa96c339b69d2fc92aa2afc21efb669f985cc4979e1fad8383604051610925929190611d77565b60405180910390a25050565b60045481565b60016020528060005260406000206000915090508060000160009054906101000a900473ffffffffffffffffffffffffffffffffffffffff16908060010154908060020154908060030154908060040160009054906101000a900460ff16908060040160019054906101000a900473ffffffffffffffffffffffffffffffffffffffff16908060050154908060060180546109d190611dcf565b80601f01602080910402602001604051908101604052809291908181526020018280546109fd90611dcf565b8015610a4a5780601f10610a1f57610100808354040283529160200191610a4a565b820191906000526020600020905b815481529060010190602001808311610a2d57829003601f168201915b5050505050905088565b60025481565b60008211610a9d576040517f08c379a0000000000000000000000000000000000000000000000000000000008152600401610a9490611e4c565b60405180910390fd5b60008060003373ffffffffffffffffffffffffffffffffffffffff1673ffffffffffffffffffffffffffffffffffffffff1681526020019081526020016000209050828160000154610aef9190611d43565b81600101541015610b35576040517f08c379a0000000000000000000000000000000000000000000000000000000008152600401610b2c90611eb8565b60405180910390fd5b600060046000815480929190610b4a90611ed8565b9190505590506040518061010001604052803373ffffffffffffffffffffffffffffffffffffffff168152602001858152602001428152602001610e1042610b929190611d43565b8152602001600115158152602001600073ffffffffffffffffffffffffffffffffffffffff16815260200160008152602001848152506001600083815260200190815260200160002060008201518160000160006101000a81548173ffffffffffffffffffffffffffffffffffffffff021916908373ffffffffffffffffffffffffffffffffffffffff16021790555060208201518160010155604082015181600201556060820151816003015560808201518160040160006101000a81548160ff02191690831515021790555060a08201518160040160016101000a81548173ffffffffffffffffffffffffffffffffffffffff021916908373ffffffffffffffffffffffffffffffffffffffff16021790555060c0820151816005015560e0820151816006019081610cc691906120cc565b5090505083826001016000828254610cde9190611d0f565b925050819055503373ffffffffffffffffffffffffffffffffffffffff16817fdfd9368f6a20908dda3154049309bed0e3d822f91b54e6277cd021ee93e0343f8686604051610d2e92919061219e565b60405180910390a350505050565b60006001600083815260200190815260200160002090508060040160009054906101000a900460ff16610da4576040517f08c379a0000000000000000000000000000000000000000000000000000000008152600401610d9b9061221a565b60405180910390fd5b8060030154421115610deb576040517f08c379a0000000000000000000000000000000000000000000000000000000008152600401610de290612286565b60405180910390fd5b80600501543411610e31576040517f08c379a0000000000000000000000000000000000000000000000000000000008152600401610e2890612318565b60405180910390fd5b600073ffffffffffffffffffffffffffffffffffffffff168160040160019054906101000a900473ffffffffffffffffffffffffffffffffffffffff1673ffffffffffffffffffffffffffffffffffffffff1614610ef9578060040160019054906101000a900473ffffffffffffffffffffffffffffffffffffffff1673ffffffffffffffffffffffffffffffffffffffff166108fc82600501549081150290604051600060405180830381858888f19350505050158015610ef7573d6000803e3d6000fd5b505b338160040160016101000a81548173ffffffffffffffffffffffffffffffffffffffff021916908373ffffffffffffffffffffffffffffffffffffffff1602179055503481600501819055503373ffffffffffffffffffffffffffffffffffffffff16827fb8d756f2d1da4663767eb4d559780ace84f2f65a421a60ddcb47e8b2e5d2fd2634604051610f8c9190611734565b60405180910390a35050565b610e1081565b60006020528060005260406000206000915090508060000154908060010154908060020160009054906101000a900460ff16908060030154908060040154905085565b60006001600083815260200190815260200160002090508060040160009054906101000a900460ff16611049576040517f08c379a00000000000000000000000000000000000000000000000000000000081526004016110409061221a565b60405180910390fd5b8060030154421161108f576040517f08c379a000000000000000000000000000000000000000000000000000000000815260040161108690612384565b60405180910390fd5b60008160040160006101000a81548160ff021916908315150217905550600073ffffffffffffffffffffffffffffffffffffffff168160040160019054906101000a900473ffffffffffffffffffffffffffffffffffffffff1673ffffffffffffffffffffffffffffffffffffffff16146111f85780600101546000808360040160019054906101000a900473ffffffffffffffffffffffffffffffffffffffff1673ffffffffffffffffffffffffffffffffffffffff1673ffffffffffffffffffffffffffffffffffffffff168152602001908152602001600020600001600082825461117d9190611d43565b925050819055508060000160009054906101000a900473ffffffffffffffffffffffffffffffffffffffff1673ffffffffffffffffffffffffffffffffffffffff166108fc82600501549081150290604051600060405180830381858888f193505050501580156111f2573d6000803e3d6000fd5b50611279565b80600101546000808360000160009054906101000a900473ffffffffffffffffffffffffffffffffffffffff1673ffffffffffffffffffffffffffffffffffffffff1673ffffffffffffffffffffffffffffffffffffffff16815260200190815260200160002060010160008282546112719190611d43565b925050819055505b8060040160019054906101000a900473ffffffffffffffffffffffffffffffffffffffff1673ffffffffffffffffffffffffffffffffffffffff16827fd2aa34a4fdbbc6dff6a3e56f46e0f3ae2a31d7785ff3487aa5c95c642acea50183600101546040516112e89190611734565b60405180910390a35050565b6000806000806000806000808873ffffffffffffffffffffffffffffffffffffffff1673ffffffffffffffffffffffffffffffffffffffff1681526020019081526020016000209050806000015481600101548260020160009054906101000a900460ff1683600301548460040154955095509550955095505091939590929450565b60035481565b600080600080600080600060606000600160008b815260200190815260200160002090508060000160009054906101000a900473ffffffffffffffffffffffffffffffffffffffff168160010154826002015483600301548460040160009054906101000a900460ff168560040160019054906101000a900473ffffffffffffffffffffffffffffffffffffffff1686600501548760060180805461142190611dcf565b80601f016020809104026020016040519081016040528092919081815260200182805461144d90611dcf565b801561149a5780601f1061146f5761010080835404028352916020019161149a565b820191906000526020600020905b81548152906001019060200180831161147d57829003601f168201915b505050505090509850985098509850985098509850985050919395975091939597565b60008111611500576040517f08c379a00000000000000000000000000000000000000000000000000000000081526004016114f790611e4c565b60405180910390fd5b60008060003373ffffffffffffffffffffffffffffffffffffffff1673ffffffffffffffffffffffffffffffffffffffff16815260200190815260200160002090508181600001546115529190611d43565b81600101541015611598576040517f08c379a000000000000000000000000000000000000000000000000000000000815260040161158f90611eb8565b60405180910390fd5b6000600354836115a89190611bcf565b9050828260010160008282546115be9190611d0f565b92505081905550808260040160008282546115d99190611d43565b925050819055503373ffffffffffffffffffffffffffffffffffffffff166108fc829081150290604051600060405180830381858888f19350505050158015611626573d6000803e3d6000fd5b503373ffffffffffffffffffffffffffffffffffffffff167fbaa92cffed87c9ec82a4e1eba12e9de8471c32e481c1a00903cd63d5db87ca4b848360405161166f929190611d77565b60405180910390a2505050565b6000604051905090565b600080fd5b600080fd5b600073ffffffffffffffffffffffffffffffffffffffff82169050919050565b60006116bb82611690565b9050919050565b6116cb816116b0565b81146116d657600080fd5b50565b6000813590506116e8816116c2565b92915050565b60006020828403121561170457611703611686565b5b6000611712848285016116d9565b91505092915050565b6000819050919050565b61172e8161171b565b82525050565b60006020820190506117496000830184611725565b92915050565b6117588161171b565b811461176357600080fd5b50565b6000813590506117758161174f565b92915050565b6000806040838503121561179257611791611686565b5b60006117a085828601611766565b92505060206117b185828601611766565b9150509250929050565b6000602082840312156117d1576117d0611686565b5b60006117df84828501611766565b91505092915050565b6117f1816116b0565b82525050565b60008115159050919050565b61180c816117f7565b82525050565b600081519050919050565b600082825260208201905092915050565b60005b8381101561184c578082015181840152602081019050611831565b60008484015250505050565b6000601f19601f8301169050919050565b600061187482611812565b61187e818561181d565b935061188e81856020860161182e565b61189781611858565b840191505092915050565b6000610100820190506118b8600083018b6117e8565b6118c5602083018a611725565b6118d26040830189611725565b6118df6060830188611725565b6118ec6080830187611803565b6118f960a08301866117e8565b61190660c0830185611725565b81810360e08301526119188184611869565b90509998505050505050505050565b600080fd5b600080fd5b7f4e487b7100000000000000000000000000000000000000000000000000000000600052604160045260246000fd5b61196982611858565b810181811067ffffffffffffffff8211171561198857611987611931565b5b80604052505050565b600061199b61167c565b90506119a78282611960565b919050565b600067ffffffffffffffff8211156119c7576119c6611931565b5b6119d082611858565b9050602081019050919050565b82818337600083830152505050565b60006119ff6119fa846119ac565b611991565b905082815260208101848484011115611a1b57611a1a61192c565b5b611a268482856119dd565b509392505050565b600082601f830112611a4357611a42611927565b5b8135611a538482602086016119ec565b91505092915050565b60008060408385031215611a7357611a72611686565b5b6000611a8185828601611766565b925050602083013567ffffffffffffffff811115611aa257611aa161168b565b5b611aae85828601611a2e565b9150509250929050565b600060a082019050611acd6000830188611725565b611ada6020830187611725565b611ae76040830186611803565b611af46060830185611725565b611b016080830184611725565b9695505050505050565b6000819050919050565b7f4e487b7100000000000000000000000000000000000000000000000000000000600052601160045260246000fd5b6000611b4f82611b0b565b9150611b5a83611b0b565b9250828203905081811260008412168282136000851215161715611b8157611b80611b15565b5b92915050565b6000611b9282611b0b565b91507f80000000000000000000000000000000000000000000000000000000000000008203611bc457611bc3611b15565b5b816000039050919050565b6000611bda8261171b565b9150611be58361171b565b9250828202611bf38161171b565b91508282048414831517611c0a57611c09611b15565b5b5092915050565b7f4e6f206f75747374616e64696e672062696c6c20746f207061792e0000000000600082015250565b6000611c47601b8361181d565b9150611c5282611c11565b602082019050919050565b60006020820190508181036000830152611c7681611c3a565b9050919050565b7f496e73756666696369656e74207061796d656e7420746f20736574746c65207460008201527f68652062696c6c2e000000000000000000000000000000000000000000000000602082015250565b6000611cd960288361181d565b9150611ce482611c7d565b604082019050919050565b60006020820190508181036000830152611d0881611ccc565b9050919050565b6000611d1a8261171b565b9150611d258361171b565b9250828203905081811115611d3d57611d3c611b15565b5b92915050565b6000611d4e8261171b565b9150611d598361171b565b9250828201905080821115611d7157611d70611b15565b5b92915050565b6000604082019050611d8c6000830185611725565b611d996020830184611725565b9392505050565b7f4e487b7100000000000000000000000000000000000000000000000000000000600052602260045260246000fd5b60006002820490506001821680611de757607f821691505b602082108103611dfa57611df9611da0565b5b50919050565b7f416d6f756e74206d7573742062652067726561746572207468616e2030000000600082015250565b6000611e36601d8361181d565b9150611e4182611e00565b602082019050919050565b60006020820190508181036000830152611e6581611e29565b9050919050565b7f496e73756666696369656e742065786365737320656e65726779000000000000600082015250565b6000611ea2601a8361181d565b9150611ead82611e6c565b602082019050919050565b60006020820190508181036000830152611ed181611e95565b9050919050565b6000611ee38261171b565b91507fffffffffffffffffffffffffffffffffffffffffffffffffffffffffffffffff8203611f1557611f14611b15565b5b600182019050919050565b60008190508160005260206000209050919050565b60006020601f8301049050919050565b600082821b905092915050565b600060088302611f827fffffffffffffffffffffffffffffffffffffffffffffffffffffffffffffffff82611f45565b611f8c8683611f45565b95508019841693508086168417925050509392505050565b6000819050919050565b6000611fc9611fc4611fbf8461171b565b611fa4565b61171b565b9050919050565b6000819050919050565b611fe383611fae565b611ff7611fef82611fd0565b848454611f52565b825550505050565b600090565b61200c611fff565b612017818484611fda565b505050565b5b8181101561203b57612030600082612004565b60018101905061201d565b5050565b601f8211156120805761205181611f20565b61205a84611f35565b81016020851015612069578190505b61207d61207585611f35565b83018261201c565b50505b505050565b600082821c905092915050565b60006120a360001984600802612085565b1980831691505092915050565b60006120bc8383612092565b9150826002028217905092915050565b6120d582611812565b67ffffffffffffffff8111156120ee576120ed611931565b5b6120f88254611dcf565b61210382828561203f565b600060209050601f8311600181146121365760008415612124578287015190505b61212e85826120b0565b865550612196565b601f19841661214486611f20565b60005b8281101561216c57848901518255600182019150602085019450602081019050612147565b868310156121895784890151612185601f891682612092565b8355505b6001600288020188555050505b505050505050565b60006040820190506121b36000830185611725565b81810360208301526121c58184611869565b90509392505050565b7f41756374696f6e206973206e6f74206163746976650000000000000000000000600082015250565b600061220460158361181d565b915061220f826121ce565b602082019050919050565b60006020820190508181036000830152612233816121f7565b9050919050565b7f41756374696f6e2068617320656e646564000000000000000000000000000000600082015250565b600061227060118361181d565b915061227b8261223a565b602082019050919050565b6000602082019050818103600083015261229f81612263565b9050919050565b7f426964206d75737420626520686967686572207468616e2063757272656e742060008201527f6869676865737420626964000000000000000000000000000000000000000000602082015250565b6000612302602b8361181d565b915061230d826122a6565b604082019050919050565b60006020820190508181036000830152612331816122f5565b9050919050565b7f41756374696f6e20686173206e6f7420656e6465642079657400000000000000600082015250565b600061236e60198361181d565b915061237982612338565b602082019050919050565b6000602082019050818103600083015261239d81612361565b905091905056fea26469706673582212207b07727c365aa774ba4cf4500f0753113abf16612b83b5b6621638d7c2ba39f964736f6c634300081b0033",
  "linkReferences": {},
  "deployedLinkReferences": {}
}